{
  "address": "0x2b5a0aEE56c23Bed338e4f6B1048b9fA213d97B3",
  "abi": [
    {
      "inputs": [
        {
          "internalType": "address",
          "name": "_manager",
          "type": "address"
        }
      ],
      "stateMutability": "nonpayable",
      "type": "constructor"
    },
    {
      "anonymous": false,
      "inputs": [
        {
          "indexed": false,
          "internalType": "address",
          "name": "raisePool",
          "type": "address"
        },
        {
          "indexed": false,
          "internalType": "address",
          "name": "caller",
          "type": "address"
        },
        {
          "indexed": false,
          "internalType": "uint256",
          "name": "payValue",
          "type": "uint256"
        },
        {
          "components": [
            {
              "internalType": "uint256",
              "name": "id",
              "type": "uint256"
            },
            {
              "internalType": "uint256",
              "name": "targetAmount",
              "type": "uint256"
            },
            {
              "internalType": "uint256",
              "name": "securityFund",
              "type": "uint256"
            },
            {
              "internalType": "uint256",
              "name": "securityFundRate",
              "type": "uint256"
            },
            {
              "internalType": "uint256",
              "name": "deadline",
              "type": "uint256"
            },
            {
              "internalType": "uint256",
              "name": "raiserShare",
              "type": "uint256"
            },
            {
              "internalType": "uint256",
              "name": "investorShare",
              "type": "uint256"
            },
            {
              "internalType": "uint256",
              "name": "servicerShare",
              "type": "uint256"
            },
            {
              "internalType": "address",
              "name": "sponsor",
              "type": "address"
            },
            {
              "internalType": "uint256",
              "name": "companyId",
              "type": "uint256"
            },
            {
              "internalType": "address",
              "name": "spAddress",
              "type": "address"
            }
          ],
          "indexed": false,
          "internalType": "struct ILetsFilRaiseInfo.RaiseInfo",
          "name": "raiseInfo",
          "type": "tuple"
        },
        {
          "components": [
            {
              "internalType": "uint256",
              "name": "nodeSize",
              "type": "uint256"
            },
            {
              "internalType": "uint256",
              "name": "sectorSize",
              "type": "uint256"
            },
            {
              "internalType": "uint256",
              "name": "sealPeriod",
              "type": "uint256"
            },
            {
              "internalType": "uint256",
              "name": "nodePeriod",
              "type": "uint256"
            },
            {
              "internalType": "uint256",
              "name": "opsSecurityFund",
              "type": "uint256"
            },
            {
              "internalType": "address",
              "name": "opsSecurityFundPayer",
              "type": "address"
            },
            {
              "internalType": "uint64",
              "name": "minerID",
              "type": "uint64"
            }
          ],
          "indexed": false,
          "internalType": "struct ILetsFilRaiseInfo.NodeInfo",
          "name": "nodeInfo",
          "type": "tuple"
        },
        {
          "indexed": false,
          "internalType": "uint256",
          "name": "raiseID",
          "type": "uint256"
        }
      ],
      "name": "eCreateRaisePlan",
      "type": "event"
    },
    {
      "anonymous": false,
      "inputs": [
        {
          "indexed": false,
          "internalType": "address",
          "name": "addr",
          "type": "address"
        }
      ],
      "name": "eTest",
      "type": "event"
    },
    {
      "inputs": [
        {
          "components": [
            {
              "internalType": "uint256",
              "name": "id",
              "type": "uint256"
            },
            {
              "internalType": "uint256",
              "name": "targetAmount",
              "type": "uint256"
            },
            {
              "internalType": "uint256",
              "name": "securityFund",
              "type": "uint256"
            },
            {
              "internalType": "uint256",
              "name": "securityFundRate",
              "type": "uint256"
            },
            {
              "internalType": "uint256",
              "name": "deadline",
              "type": "uint256"
            },
            {
              "internalType": "uint256",
              "name": "raiserShare",
              "type": "uint256"
            },
            {
              "internalType": "uint256",
              "name": "investorShare",
              "type": "uint256"
            },
            {
              "internalType": "uint256",
              "name": "servicerShare",
              "type": "uint256"
            },
            {
              "internalType": "address",
              "name": "sponsor",
              "type": "address"
            },
            {
              "internalType": "uint256",
              "name": "companyId",
              "type": "uint256"
            },
            {
              "internalType": "address",
              "name": "spAddress",
              "type": "address"
            }
          ],
          "internalType": "struct ILetsFilRaiseInfo.RaiseInfo",
          "name": "_raiseInfo",
          "type": "tuple"
        },
        {
          "components": [
            {
              "internalType": "uint256",
              "name": "nodeSize",
              "type": "uint256"
            },
            {
              "internalType": "uint256",
              "name": "sectorSize",
              "type": "uint256"
            },
            {
              "internalType": "uint256",
              "name": "sealPeriod",
              "type": "uint256"
            },
            {
              "internalType": "uint256",
              "name": "nodePeriod",
              "type": "uint256"
            },
            {
              "internalType": "uint256",
              "name": "opsSecurityFund",
              "type": "uint256"
            },
            {
              "internalType": "address",
              "name": "opsSecurityFundPayer",
              "type": "address"
            },
            {
              "internalType": "uint64",
              "name": "minerID",
              "type": "uint64"
            }
          ],
          "internalType": "struct ILetsFilRaiseInfo.NodeInfo",
          "name": "_nodeInfo",
          "type": "tuple"
        }
      ],
      "name": "createRaisePlan",
      "outputs": [
        {
          "internalType": "address",
          "name": "planAddress",
          "type": "address"
        }
      ],
      "stateMutability": "payable",
      "type": "function"
    },
    {
      "inputs": [
        {
          "internalType": "uint256",
          "name": "_raiseID",
          "type": "uint256"
        }
      ],
      "name": "endPlan",
      "outputs": [
        {
          "internalType": "bool",
          "name": "",
          "type": "bool"
        }
      ],
      "stateMutability": "nonpayable",
      "type": "function"
    }
  ],
  "transactionHash": "0x8b66ca7abd14d4422cb8576f198686fea090a6bbe72dba6f012f82925336244d",
  "args": [
    "0x47C1Cbb1D676B4464c19C5c58deaA50bA468C69B"
  ],
  "numDeployments": 2,
  "solcInputHash": "1bb16592d4f24d7291b2cf6bef7d76b6",
  "bytecode": "0x60a060405234801561001057600080fd5b506040516146f13803806146f183398101604081905261002f9161008d565b30608052600480546001600160a01b0319166001600160a01b03929092169190911790556100b6565b60006001600160a01b0382165b92915050565b61007481610058565b811461007f57600080fd5b50565b80516100658161006b565b6000602082840312156100a2576100a2600080fd5b60006100ae8484610082565b949350505050565b6080516146206100d1600039600061025f01526146206000f3fe6080604052600436106200002c5760003560e01c80632acb121314620000315780637f186289146200006e575b600080fd5b3480156200003e57600080fd5b50620000566200005036600462000339565b62000094565b60405162000065919062000370565b60405180910390f35b620000856200007f36600462000608565b62000177565b60405162000065919062000658565b6000620000a062000254565b600082815260036020908152604091829020825160808101845281546001600160a01b03808216808452600160a01b90920467ffffffffffffffff16948301949094526001830154948201949094526002909101549091166060820152903214620001285760405162461bcd60e51b81526004016200011f9062000697565b60405180910390fd5b6020808201805167ffffffffffffffff9081166000908152600284526040808220829055925190911681526001808452828220929094015182548086018455928252929020015590505b919050565b60006200018362000254565b60008081546200019390620006bf565b9182905550835260c082015167ffffffffffffffff1660009081526002602052604090205415620001d85760405162461bcd60e51b81526004016200011f9062000708565b620002076000808154620001ec90620006bf565b9182905550600454859085906001600160a01b03166200028c565b83516040519192507f8a51504c49dde652010a8d3604828c604531f85a17f8515bf0b82f59d625177991620002469184913391349189918991620008b5565b60405180910390a192915050565b306001600160a01b037f000000000000000000000000000000000000000000000000000000000000000016146200028a57600080fd5b565b60008054604051602001620002a291906200091e565b60405160208183030381529060405280519060200120348686868630604051620002cc9062000307565b620002dc9594939291906200092e565b82906040518091039083f591505080158015620002fd573d6000803e3d6000fd5b5095945050505050565b613c62806200098983390190565b805b81146200032357600080fd5b50565b8035620003338162000315565b92915050565b600060208284031215620003505762000350600080fd5b60006200035e848462000326565b949350505050565b8015155b82525050565b6020810162000333828462000366565b634e487b7160e01b600052604160045260246000fd5b601f19601f830116810181811067ffffffffffffffff82111715620003bf57620003bf62000380565b6040525050565b6000620003d260405190565b905062000172828262000396565b60006001600160a01b03821662000333565b6200031781620003e0565b80356200033381620003f2565b60006101608284031215620004225762000422600080fd5b6200042f610160620003c6565b905060006200043f848462000326565b8252506020620004528484830162000326565b6020830152506040620004688482850162000326565b60408301525060606200047e8482850162000326565b6060830152506080620004948482850162000326565b60808301525060a0620004aa8482850162000326565b60a08301525060c0620004c08482850162000326565b60c08301525060e0620004d68482850162000326565b60e083015250610100620004ed84828501620003fd565b61010083015250610120620005058482850162000326565b610120830152506101406200051d84828501620003fd565b6101408301525092915050565b67ffffffffffffffff811662000317565b803562000333816200052a565b600060e082840312156200055f576200055f600080fd5b6200056b60e0620003c6565b905060006200057b848462000326565b82525060206200058e8484830162000326565b6020830152506040620005a48482850162000326565b6040830152506060620005ba8482850162000326565b6060830152506080620005d08482850162000326565b60808301525060a0620005e684828501620003fd565b60a08301525060c0620005fc848285016200053b565b60c08301525092915050565b6000806102408385031215620006215762000621600080fd5b60006200062f85856200040a565b925050610160620006438582860162000548565b9150509250929050565b6200036a81620003e0565b602081016200033382846200064d565b601581526000602082017422a7222fa82620a72fa7a924a3a4a72fa2a92927a960591b815291505b5060200190565b60208082528101620003338162000668565b634e487b7160e01b600052601160045260246000fd5b60006000198203620006d557620006d5620006a9565b5060010190565b60148152600060208201736d696e657220616c72656164792065786973747360601b8152915062000690565b602080825281016200033381620006dc565b806200036a565b80516101608301906200073584826200071a565b5060208201516200074a60208501826200071a565b5060408201516200075f60408501826200071a565b5060608201516200077460608501826200071a565b5060808201516200078960808501826200071a565b5060a08201516200079e60a08501826200071a565b5060c0820151620007b360c08501826200071a565b5060e0820151620007c860e08501826200071a565b50610100820151620007df6101008501826200064d565b50610120820151620007f66101208501826200071a565b506101408201516200080d6101408501826200064d565b50505050565b67ffffffffffffffff81166200036a565b805160e08301906200083784826200071a565b5060208201516200084c60208501826200071a565b5060408201516200086160408501826200071a565b5060608201516200087660608501826200071a565b5060808201516200088b60808501826200071a565b5060a0820151620008a060a08501826200064d565b5060c08201516200080d60c085018262000813565b6102c08101620008c682896200064d565b620008d560208301886200064d565b620008e460408301876200071a565b620008f3606083018662000721565b620009036101c083018562000824565b620009136102a08301846200071a565b979650505050505050565b602081016200033382846200071a565b6102a081016200093f82886200071a565b6200094e602083018762000721565b6200095e61018083018662000824565b6200096e6102608301856200064d565b6200097e6102808301846200064d565b969550505050505056fe60a0604052678ac7230489e8000060809081525060405162003c6238038062003c6283398101604081905262000035916200044a565b62000040336200014b565b50600193909355815160025560208083015160035560408084015160045560608085015160055560808086015160065560a08087015160075560c08088015160085560e0880151600955610100880151600a80546001600160a01b03199081166001600160a01b03938416179091556101208a0151600b5561014090990151600c80548b169183169190911790558751600d5595870151600e5593860151600f55918501516010558401516011558301516012805494909201519083166001600160e01b031990941693909317600160a01b6001600160401b039094168402179055601c805490931693169290921790556000805460ff60a01b1916909117905534601a55620004d2565b600080546001600160a01b038381166001600160a01b0319831681178455604051919092169283917f8be0079c531659141344cd1fd0a4f28419497f9722a3daafe3b4186f6b6457e09190a35050565b805b8114620001a957600080fd5b50565b8051620001b9816200019b565b92915050565b634e487b7160e01b600052604160045260246000fd5b601f19601f83011681018181106001600160401b0382111715620001fd57620001fd620001bf565b6040525050565b60006200021060405190565b90506200021e8282620001d5565b919050565b60006001600160a01b038216620001b9565b6200019d8162000223565b8051620001b98162000235565b60006101608284031215620002655762000265600080fd5b6200027261016062000204565b90506000620002828484620001ac565b82525060206200029584848301620001ac565b6020830152506040620002ab84828501620001ac565b6040830152506060620002c184828501620001ac565b6060830152506080620002d784828501620001ac565b60808301525060a0620002ed84828501620001ac565b60a08301525060c06200030384828501620001ac565b60c08301525060e06200031984828501620001ac565b60e083015250610100620003308482850162000240565b610100830152506101206200034884828501620001ac565b61012083015250610140620003608482850162000240565b6101408301525092915050565b6001600160401b0381166200019d565b8051620001b9816200036d565b600060e08284031215620003a157620003a1600080fd5b620003ad60e062000204565b90506000620003bd8484620001ac565b8252506020620003d084848301620001ac565b6020830152506040620003e684828501620001ac565b6040830152506060620003fc84828501620001ac565b60608301525060806200041284828501620001ac565b60808301525060a0620004288482850162000240565b60a08301525060c06200043e848285016200037d565b60c08301525092915050565b60008060008060006102a08688031215620004685762000468600080fd5b6000620004768888620001ac565b955050602062000489888289016200024d565b9450506101806200049d888289016200038a565b935050610260620004b18882890162000240565b925050610280620004c58882890162000240565b9150509295509295909350565b60805161375f62000503600039600081816103b701528181610b3701528181610b650152611142015261375f6000f3fe60806040526004361061025c5760003560e01c806386f43a4111610144578063c424ddef116100b6578063eb0023521161007a578063eb002352146106eb578063ed07f59e14610700578063f08077ff14610721578063f2fde38b14610741578063f65b725014610761578063fc6d2cf71461077757600080fd5b8063c424ddef1461063b578063c9d5df0114610651578063d38a7aed14610667578063d77acecd1461067d578063e05ab2a71461069257600080fd5b8063995d0fe611610108578063995d0fe61461058a5780639d661b8b1461059f578063a78b1e07146105bf578063a902eb59146105d4578063b6b6a6ae146105f4578063c144b7971461062257600080fd5b806386f43a41146105115780638da5cb5b146105315780638e6d7f13146105575780638e73064f1461055f578063983d86451461057557600080fd5b80634bfc4583116101dd57806353501f8d116101a157806353501f8d1461043057806359aa6999146104505780636e4dadcd146104b2578063715018a6146104c7578063750142e6146104dc57806380d14868146104f157600080fd5b80634bfc4583146103855780634ccd44d3146103a55780634cf088d9146103d95780634e14eb28146103e15780634e3f2e481461041057600080fd5b80633146c2ab116102245780633146c2ab146103005780633a75c73a146103155780633d274a4e1461032b57806343d474491461035a5780634ad84b341461037057600080fd5b80630e0704461461026157806312065fe0146102835780631d442519146102a85780631da43a2c146102c85780632f6b5fc2146102ea575b600080fd5b34801561026d57600080fd5b5061028161027c36600461299c565b610797565b005b34801561028f57600080fd5b50475b60405161029f91906129e1565b60405180910390f35b3480156102b457600080fd5b506102816102c33660046129ef565b6108af565b3480156102d457600080fd5b506102dd610938565b60405161029f9190612a18565b3480156102f657600080fd5b5061029260155481565b34801561030c57600080fd5b50610281610970565b34801561032157600080fd5b5061029260015481565b34801561033757600080fd5b50610292610346366004612a26565b601660205280600052604060002054905081565b34801561036657600080fd5b5061029260195481565b34801561037c57600080fd5b50610292610a5f565b34801561039157600080fd5b506102816103a0366004612a26565b610a6f565b3480156103b157600080fd5b506102927f000000000000000000000000000000000000000000000000000000000000000081565b610281610a99565b3480156103ed57600080fd5b506102926103fc366004612a26565b601760205280600052604060002054905081565b34801561041c57600080fd5b5061028161042b3660046129ef565b610c79565b34801561043c57600080fd5b5061028161044b366004612a47565b610db0565b34801561045c57600080fd5b50600254600354600454600554600654600754600854600954600a54600b54600c5461049b9a99989796959493926001600160a01b039081169291168b565b60405161029f9b9a99989796959493929190612a72565b3480156104be57600080fd5b50610281610e6c565b3480156104d357600080fd5b50610281610f8a565b3480156104e857600080fd5b50610292610f9e565b3480156104fd57600080fd5b5061029261050c366004612a26565b610fa9565b34801561051d57600080fd5b5061028161052c3660046129ef565b61100d565b34801561053d57600080fd5b506000546001600160a01b031660405161029f9190612b16565b6102816112aa565b34801561056b57600080fd5b5061029260135481565b34801561058157600080fd5b506102816113ec565b34801561059657600080fd5b50610281611464565b3480156105ab57600080fd5b506102926105ba366004612a26565b6115ef565b3480156105cb57600080fd5b5061028161161b565b3480156105e057600080fd5b506102816105ef3660046129ef565b61165a565b34801561060057600080fd5b5060005461061590600160a01b900460ff1681565b60405161029f9190612b6d565b34801561062e57600080fd5b50600354601554146102dd565b34801561064757600080fd5b50610292601a5481565b34801561065d57600080fd5b5061029260145481565b34801561067357600080fd5b5061029260185481565b34801561068957600080fd5b506102816117b3565b34801561069e57600080fd5b50600d54600e54600f546010546011546012546106d89594939291906001600160a01b03811690600160a01b90046001600160401b031687565b60405161029f9796959493929190612b8a565b3480156106f757600080fd5b506102926118d1565b34801561070c57600080fd5b5060005461061590600160a81b900460ff1681565b34801561072d57600080fd5b5061028161073c3660046129ef565b6118dc565b34801561074d57600080fd5b5061028161075c366004612a26565b6119a1565b34801561076d57600080fd5b50610292601b5481565b34801561078357600080fd5b50610292610792366004612a26565b6119db565b6000811160405160408082019052600b81526a3830b930b69032b93937b960a91b6020820152906107e45760405162461bcd60e51b81526004016107db9190612c4e565b60405180910390fd5b506107ee336115ef565b81111561080d5760405162461bcd60e51b81526004016107db90612c96565b3360009081526017602052819060409020600082825461082d9190612cbc565b90915550506001600160a01b03821681156108fc0282604051600060405180830381858888f19350505050158015610869573d6000803e3d6000fd5b507f7864b76c7deb7badbb2677036e72bceede1f27ad5de801fedee080e9579e0ca2600154303385856040516108a3959493929190612ccf565b60405180910390a15050565b601c546001600160a01b031633146108d95760405162461bcd60e51b81526004016107db90612d33565b60035481111560405160408082019052600b81526a3830b930b69032b93937b960a91b60208201529061091f5760405162461bcd60e51b81526004016107db9190612c4e565b506000805460ff60a81b1916600160aa1b179055601955565b601c546000906001600160a01b031633146109655760405162461bcd60e51b81526004016107db90612d33565b506003546015541490565b600c546001600160a01b0316331461099a5760405162461bcd60e51b81526004016107db90612d6b565b6002600054600160a01b900460ff1660068111156109ba576109ba612b24565b146109d857604051633bb876f360e21b815260040160405180910390fd5b601254601054610a0d91600160a01b90046001600160401b0316906109fe906002612d7b565b610a089042612d9a565b611a22565b6000805460ff60a01b1916600360a01b1790556001547f232677777bd30fff3912b9961ead28df75f4cc82ea5fae5822c9fc748872cbb5903390604051610a55929190612dad565b60405180910390a1565b6000610a6a336115ef565b905090565b610a77611a97565b601280546001600160a01b0319166001600160a01b0392909216919091179055565b6006544210610aba5760405162461bcd60e51b81526004016107db90612df5565b600354601554610acb903490612d9a565b1115610ae95760405162461bcd60e51b81526004016107db90612e39565b6003600054600160a01b900460ff166006811115610b0957610b09612b24565b14610b3557600054600160a01b900460ff1660405163e72a902d60e01b81526004016107db9190612b6d565b7f0000000000000000000000000000000000000000000000000000000000000000341015610be1576015546003547f000000000000000000000000000000000000000000000000000000000000000091610b8e91612cbc565b1015610bc857601554600354610ba49190612cbc565b3414610bc357604051632cae2ad960e11b815260040160405180910390fd5b610be1565b604051632cae2ad960e11b815260040160405180910390fd5b33600090815260166020523490604090206000828254610c019190612d9a565b925050819055503460156000828254610c1a9190612d9a565b909155505060035460155403610c42576000805460ff60a01b1916600560a01b179055426018555b7f7ab067f550c88e5ec26d40ef4b565a41d917a1bb2412aa89da3d2bed81e40518600154333034604051610a559493929190612e49565b610c81611a97565b6000811160405160408082019052600b81526a3830b930b69032b93937b960a91b602082015290610cc55760405162461bcd60e51b81526004016107db9190612c4e565b5060006064600260050154601454610cdd9190612d7b565b610ce79190612e94565b336000908152601760205290915082906040902054610d069083612cbc565b1015610d245760405162461bcd60e51b81526004016107db90612c96565b33600090815260176020528290604090206000828254610d449190612d9a565b9091555033905082156108fc0283604051600060405180830381858888f19350505050158015610d78573d6000803e3d6000fd5b507fe5da6d3d51ad16b594efd851e42b99c49fe19e4285f4823756ae022a60c643a06001543033856040516108a39493929190612e49565b601c546001600160a01b03163314610dda5760405162461bcd60e51b81526004016107db90612d33565b600082118015610de8575060015b60405160408082019052600b81526a3830b930b69032b93937b960a91b602082015290610e285760405162461bcd60e51b81526004016107db9190612c4e565b50610e338183612d9a565b60135560148290557fe006a6f9193fd67ca36d3f6f253c3dd54e1660078f25e3fe5f55d9cf090e4a6982826040516108a3929190612ea8565b610e74611a97565b600454601a541015610e985760405162461bcd60e51b81526004016107db90612ef7565b6004600054600160a01b900460ff166006811115610eb857610eb8612b24565b1480610ee157506006600054600160a01b900460ff166006811115610edf57610edf612b24565b145b15610f1e57600454339080156108fc0290604051600060405180830381858888f19350505050158015610f18573d6000803e3d6000fd5b50610f37565b604051639543369b60e01b815260040160405180910390fd5b600454601a8054600090610f4c908490612cbc565b90915550506001546004547fa3a6324388fc0c4f50a89eb79a6adccc6c13e8d02f33c7bae2aafdd73dad28db913391604051610a5593929190612f07565b610f92611a97565b610f9c6000611ac1565b565b6000610a6a336119db565b60006015546064600260060154601454601354610fc69190612cbc565b610fd09190612d7b565b6001600160a01b038516600090815260166020526040902054610ff39190612d7b565b610ffd9190612e94565b6110079190612e94565b92915050565b6003600054600160a01b900460ff16600681111561102d5761102d612b24565b148061105657506004600054600160a01b900460ff16600681111561105457611054612b24565b145b8061107e57506006600054600160a01b900460ff16600681111561107c5761107c612b24565b145b61109a5760405162461bcd60e51b81526004016107db90612f51565b336000908152601660205260408120541180156110c65750336000908152601660205260409020548111155b6110e25760405162461bcd60e51b81526004016107db90612f8c565b6012546001600160a01b0316331480156111175750601154336000908152601660205260409020546111149190612cbc565b81115b1561113557604051630c09958160e01b815260040160405180910390fd5b33600090815260166020527f000000000000000000000000000000000000000000000000000000000000000090829060409020546111739190612cbc565b101561119257604051632a8cb2f360e01b815260040160405180910390fd5b60065442108015906111a75750600354601554105b156111fa576000805460ff60a01b1916600360a11b1790556001547f33d89694c3e2cdd490ef5b39bb1f78b9a69af60d08af7b968c04236268d94eb4906040516111f191906129e1565b60405180910390a15b3360009081526016602052819060409020600082825461121a9190612cbc565b9250508190555080601560008282546112339190612cbc565b9091555033905081156108fc0282604051600060405180830381858888f19350505050158015611267573d6000803e3d6000fd5b507fb8ea0a09cf45416c38419b44df6e04defca30bdb2170c3f2fe0fbe59468ab71f60015433308460405161129f9493929190612e49565b60405180910390a150565b6001600054600160a01b900460ff1660068111156112ca576112ca612b24565b146112e75760405162461bcd60e51b81526004016107db90612fe6565b60115434146113085760405162461bcd60e51b81526004016107db9061302a565b6012546001600160a01b0316331460405160408082019052600d81526c2737903832b936b4b9b9b4b7b760991b6020820152906113585760405162461bcd60e51b81526004016107db9190612c4e565b5033600090815260166020526040902054156113865760405162461bcd60e51b81526004016107db9061306e565b336000908152601660205234906040902055346015819055601b8190556000805460ff60a01b1916600160a11b1790556001547ff4355201361cd9f345c33a3437a48a1185da6306d1b73e44bf4e74adf4d28656913390604051610a559392919061307e565b600f546113fc9062015180612d7b565b6018546114099190612d9a565b4210611423576000805460ff60a81b1916600160a91b1790555b6001546000547f9a781bbdc9dd3cba13fc1a809f3afa74fef9ec49e9a69545b7148535ed18d94f9190600160a81b900460ff16604051610a55929190613099565b601154601b5410156114885760405162461bcd60e51b81526004016107db906130f5565b6012546001600160a01b031633146114b25760405162461bcd60e51b81526004016107db90613132565b6004600054600160a01b900460ff1660068111156114d2576114d2612b24565b14806114fb57506006600054600160a01b900460ff1660068111156114f9576114f9612b24565b145b801561154b57506005600054600160a81b900460ff16600681111561152257611522612b24565b148061154b57506006600054600160a81b900460ff16600681111561154957611549612b24565b145b61156857604051632bfb1a3760e21b815260040160405180910390fd5b601154601b805460009061157d908490612cbc565b9091555050601154339080156108fc0290604051600060405180830381858888f193505050501580156115b4573d6000803e3d6000fd5b507f9f5878cc3fcae7b43b9f02949d5828c9b460972d7e2cd4d55cc7298850fd17ff33600154600d60040154604051610a5593929190612f07565b6001600160a01b038116600090815260176020526040812054611611836119db565b6110079190612cbc565b601c546001600160a01b031633146116455760405162461bcd60e51b81526004016107db90612d33565b6000805460ff60a81b1916600360a91b179055565b600c546001600160a01b031633146116845760405162461bcd60e51b81526004016107db90612d6b565b6000811160405160408082019052600b81526a3830b930b69032b93937b960a91b6020820152906116c85760405162461bcd60e51b81526004016107db9190612c4e565b50600060646002600701546014546116e09190612d7b565b6116ea9190612e94565b3360009081526017602052909150829060409020546117099083612cbc565b10156117275760405162461bcd60e51b81526004016107db90612c96565b336000908152601760205282906040902060008282546117479190612d9a565b9091555033905082156108fc0283604051600060405180830381858888f1935050505015801561177b573d6000803e3d6000fd5b507ff69d5b3f71f5b58e6d857275b7e97c5d65dbf6e797c3544b24c5764b9966f9a36001543033856040516108a39493929190612e49565b6117bb611a97565b6004600054600160a01b900460ff1660068111156117db576117db612b24565b106117f9576040516364cdea6d60e11b815260040160405180910390fd5b6000805460ff60a01b1916600160a21b179055601d546001546001600160a01b0390911690632acb1213906040518263ffffffff1660e01b815260040161184091906129e1565b6020604051808303816000875af115801561185f573d6000803e3d6000fd5b50505050604051601f3d908101601f191682016040526118829190810190613159565b61189e5760405162461bcd60e51b81526004016107db906131ae565b7f96bea66445b93064905ab9484bca37afea06fc23524c53a1f8ac18f76d193f3933600154604051610a55929190612dad565b6000610a6a33610fa9565b601c546001600160a01b031633146119065760405162461bcd60e51b81526004016107db90612d33565b4281111560405160408082019052600b81526a3830b930b69032b93937b960a91b60208201529061194a5760405162461bcd60e51b81526004016107db9190612c4e565b5060188190556000805460ff60a81b1916600160a81b908117918290556001547f9a781bbdc9dd3cba13fc1a809f3afa74fef9ec49e9a69545b7148535ed18d94f929091900460ff1660405161129f929190613099565b6119a9611a97565b6001600160a01b0381166119cf5760405162461bcd60e51b81526004016107db90613201565b6119d881611ac1565b50565b600060155460646002600601546014546119f59190612d7b565b6119ff9190612e94565b6001600160a01b038416600090815260166020526040902054610ffd9190612d7b565b611a2a6128dc565b611a35600019611b13565b6020820152600782900b6040820152611a4d30611b5f565b81527f4f585bbf0e07de94405f680838727b835429785b661a98e8361dc421599a63e78383604051611a8092919061325e565b60405180910390a1611a928382611ba8565b505050565b6000546001600160a01b03163314610f9c5760405162461bcd60e51b81526004016107db906132ab565b600080546001600160a01b038381166001600160a01b0319831681179093551690817f8be0079c531659141344cd1fd0a4f28419497f9722a3daafe3b4186f6b6457e060405160405180910390a35050565b611b2e60405160408082019052606081526000602082015290565b6000611b3b836000611bf3565b90506040516040808201905280825181526020018260200151151590529392505050565b611b73604051602081016040526060815290565b604051806020016040528083604051602001611b8f91906132e3565b6040516020818303038152906040528152509050919050565b6000611bb382611c4b565b90506000611bcb84635d9dfc2c605185600080611d0a565b9050805115611bed57604051630e74990760e01b815260040160405180910390fd5b50505050565b611c19604051806060016040528060608152602001600015158152602001600081525090565b611c4483604051602001611c2d9190613309565b604051602081830303815290604052836000611d54565b9392505050565b6060600080611c5d8460200151611e29565b9050611c696003611f47565b611c739083612d9a565b9150611c80845151611f95565b611c8a9083612d9a565b9150611c9581611f95565b611c9f9083612d9a565b9150611cae8460400151611fad565b611cb89083612d9a565b91506000611cc583611ff0565b9050611cd2816003612010565b611cdf8551518290612020565b611ce98183612020565b611cf885604001518290612039565b611d0181612043565b95945050505050565b60606064876001600160401b03161015611d39578660405163a292827360e01b81526004016107db919061331e565b611d47878787878787612070565b90505b9695505050505050565b611d7a604051806060016040528060608152602001600015158152602001600081525090565b602084018451600059601f83161560018114611da857601f8416602090810380860184528301019250611db2565b6020820192508382525b508282848660046101c2fa506020815101810160405280515b60208114611df957600060208301511460018114611de95750611df9565b60208301925050601f1901611dcb565b81528452505050602081018390528115611e135781611e1d565b611e1d815161214c565b60408201529392505050565b60606000825151611e3b906001612d9a565b6001600160401b03811115611e5257611e5261332c565b604051818152601f19601f8301168101602001604052908015611e7c576020820181803683370190505b50905082602001511515600114611e94576000611e9a565b600160f81b5b81600081518110611ead57611ead613342565b60200101906001600160f81b031916908160001a905350600160005b845151811015611f3e5784518181518110611ee657611ee6613342565b60200101516001600160f81b031916838381518110611f0757611f07613342565b60200101906001600160f81b031916908160001a90535081611f2881613358565b9250508080611f3690613358565b915050611ec9565b50909392505050565b600060178211611f5957506001919050565b60ff8211611f6957506002919050565b61ffff8211611f7a57506003919050565b63ffffffff8211611f8d57506005919050565b506009919050565b60008151611fa38351611f47565b6110079190612d9a565b600081600781900b8213611fcd57611c44816001600160401b0316611f47565b611c44611fdc82600019613372565b6001600160401b0316611f47565b50919050565b611ff8612928565b61200381518361218a565b5060006020820152919050565b61201c82600483612207565b5050565b61202d826002835161220e565b611a928183519061232b565b61201c8282612352565b60608160200151156120675760405162461bcd60e51b81526004016107db906133d8565b81515192915050565b60606120836005607f60991b0184612380565b6000806005607f60991b0188868661209c57600061209f565b60015b8a8a8e6040516020016120b7969594939291906133e8565b6040516020818303038152906040526040516120d39190613471565b600060405180830381855af49150503d806000811461210e576040513d603f01601f191681016040523d815291503d6000602084013e612113565b606091505b50915091508161213657604051638a7db5bf60e01b815260040160405180910390fd5b61213f816123c8565b9998505050505050505050565b6000612157826124a7565b1561216457506000919050565b600060208301519050612176816124f0565b915060086020845103028201915050919050565b6121a560405160408082019052606081526000602082015290565b6121b060208361347d565b156121d8576121c060208361347d565b6121cb906020612cbc565b6121d59083612d9a565b91505b6020830182905260405180845260008152828101602001818110156121fc57600080fd5b604052509192915050565b611a928383835b6017816001600160401b03161161223457611bed60e0600584901b1682178451906126e5565b60ff816001600160401b0316116122755761225c6018611fe0600585901b16178451906126e5565b50611bed6001600160401b038216600185519190612758565b61ffff816001600160401b0316116122b75761229e6019611fe0600585901b16178451906126e5565b50611bed6001600160401b038216600285519190612758565b63ffffffff816001600160401b0316116122fb576122e2601a611fe0600585901b16178451906126e5565b50611bed6001600160401b038216600485519190612758565b612312601b611fe0600585901b16178451906126e5565b50611bed6001600160401b038216600885519190612758565b61234660405160408082019052606081526000602082015290565b611c44838384516127e7565b60008160070b126123695761201c8260008361220e565b61201c82600161237b84600019613372565b61220e565b47818110156123a6578082604051634787a10360e11b81526004016107db929190612ea8565b823f151580611bed5760405163064d954b60e41b815260040160405180910390fd5b6060600080806020850185518101906123e19190613594565b919450925090506001600160401b03821661241b5780511561241657604051630e74990760e01b815260040160405180910390fd5b61247e565b6001600160401b0382166051148061243c57506001600160401b0382166071145b1561246357805160000361241657604051630e74990760e01b815260040160405180910390fd5b8160405163f1f6bced60e01b81526004016107db91906135fe565b821561249f578260405163d4bb667160e01b81526004016107db91906129e1565b949350505050565b60008060208301815b84518110156124e5578151925082156124ce57506000949350505050565b6020918201916124de9082612d9a565b90506124b0565b506001949350505050565b60008115600181146126dc57600160801b68010000000000000000640100000000620100006101006010600460026000198b019081041790810417908104179081041790810417908104179081041790810417600101926040517ff8f9cbfae6cc78fbefe7cdc3a1793dfcf4f0e8bbd8cec470b6a28a7a5a3e1efd81527ff5ecf1b3e9debc68e1d9cfabc5997135bfb7a7a3938b7b606b5b4b3f2f1f0ffe60208201527ff6e4ed9ff2d6b458eadcdf97bd91692de2d4da8fd2d0ac50c6ae9a827252361660408201527fc8c0b887b0a8a4489c948c7f847c6125746c645c544c444038302820181008ff60608201527ff7cae577eec2a03cf3bad76fb589591debb2dd67e0aa9834bea6925f6a4a2e0e60808201527fe39ed557db96902cd38ed14fad815115c786af479b7e8324736353433727170760a08201527fc976c13bb96e881cb166a933a55e490d9d56952b8d4e801485467d236242260660c08201527f753a6d1b65325d0c552a4d1345224105391a310b29122104190a11030902010060e082015261010081016040527e818283848586878898a8b8c8d8e8f929395969799a9b9d9e9faaeb6bedeeff600160f81b8082880204818160ff0385015104600160ff1b861161010002019650600019850185166126d2576001870196505b5050505050611fea565b50600092915050565b61270060405160408082019052606081526000602082015290565b600083515190506000612714826001612d9a565b9050846020015182106127355761273585612730836002612d7b565b6128c1565b8451602083820101858153815183111561274d578282525b509495945050505050565b61277360405160408082019052606081526000602082015290565b6000845151905060006127868285612d9a565b905085602001518111156127a3576127a386612730836002612d7b565b600060016127b38661010061371a565b6127bd9190612cbc565b9050865182810187831982511617815281518411156127da578382525b5096979650505050505050565b61280260405160408082019052606081526000602082015290565b825182111561281057600080fd5b6000845151905060006128238483612d9a565b905085602001518111156128405761284086612730836002612d7b565b6000808751805185602083010193508085111561285b578482525b505050602086015b6020861061289b578051825261287a602083612d9a565b9150612887602082612d9a565b9050612894602087612cbc565b9550612863565b60001960208790036101000a018019825116818451161790925250959695505050505050565b6000825190506128d1838361218a565b50611bed838261232b565b60405180606001604052806128fb604051602081016040526060815290565b815260200161291b60405160408082019052606081526000602082015290565b8152600060209091015290565b604051806040016040528061294e60405160408082019052606081526000602082015290565b8152602001600081525090565b60006001600160a01b038216611007565b6129758161295b565b81146119d857600080fd5b80356110078161296c565b80612975565b80356110078161298b565b600080604083850312156129b2576129b2600080fd5b60006129be8585612980565b92505060206129cf85828601612991565b9150509250929050565b805b82525050565b6020810161100782846129d9565b600060208284031215612a0457612a04600080fd5b600061249f8484612991565b8015156129db565b602081016110078284612a10565b600060208284031215612a3b57612a3b600080fd5b600061249f8484612980565b60008060408385031215612a5d57612a5d600080fd5b60006129be8585612991565b6129db8161295b565b6101608101612a81828e6129d9565b612a8e602083018d6129d9565b612a9b604083018c6129d9565b612aa8606083018b6129d9565b612ab5608083018a6129d9565b612ac260a08301896129d9565b612acf60c08301886129d9565b612adc60e08301876129d9565b612aea610100830186612a69565b612af86101208301856129d9565b612b06610140830184612a69565b9c9b505050505050505050505050565b602081016110078284612a69565b634e487b7160e01b600052602160045260246000fd5b600781106119d8576119d8612b24565b80612b5481612b3a565b919050565b600061100782612b4a565b6129db81612b59565b602081016110078284612b64565b6001600160401b0381166129db565b60e08101612b98828a6129d9565b612ba560208301896129d9565b612bb260408301886129d9565b612bbf60608301876129d9565b612bcc60808301866129d9565b612bd960a0830185612a69565b612be660c0830184612b7b565b98975050505050505050565b60005b83811015612c0d578082015183820152602001612bf5565b50506000910152565b6000612c26826000815192915050565b808452602084019350612c3d818560208601612bf2565b601f01601f19169290920192915050565b60208082528101611c448184612c16565b601b81526000602082017f72657761726420496e73756666696369656e742062616c616e63650000000000815291505b5060200190565b6020808252810161100781612c5f565b634e487b7160e01b600052601160045260246000fd5b8181038181111561100757611007612ca6565b60a08101612cdd82886129d9565b612cea6020830187612a69565b612cf76040830186612a69565b612d046060830185612a69565b611d4a60808301846129d9565b600b81526000602082016a2737ba1036b0b730b3b2b960a91b81529150612c8f565b6020808252810161100781612d11565b60118152600060208201702737ba1039b2b93b32b91039b4b3b732b960791b81529150612c8f565b6020808252810161100781612d43565b818102808215838204851417612d9357612d93612ca6565b5092915050565b8082018082111561100757611007612ca6565b60408101612dbb8285612a69565b611c4460208301846129d9565b601681526000602082017514985a5cd9481c1b185b881a185cc8195e1c1a5c995960521b81529150612c8f565b6020808252810161100781612dc8565b601b81526000602082017f4d6f7265207468616e20746865206e756d62657220726169736564000000000081529150612c8f565b6020808252810161100781612e05565b60808101612e5782876129d9565b612e646020830186612a69565b612e716040830185612a69565b611d0160608301846129d9565b634e487b7160e01b600052601260045260246000fd5b600082612ea357612ea3612e7e565b500490565b60408101612dbb82856129d9565b602181526000602082017f736563757269747946756e6420496e73756666696369656e742062616c616e638152606560f81b602082015291505b5060400190565b6020808252810161100781612eb6565b60608101612f158286612a69565b612f2260208301856129d9565b61249f60408301846129d9565b600b81526000602082016a57726f6e6720737461746560a81b81529150612c8f565b6020808252810161100781612f2f565b6014815260006020820173496e73756666696369656e742062616c616e636560601b81529150612c8f565b6020808252810161100781612f61565b602d81526000602082017f5261697365207374617465206d7573742062652057616974696e675061794f5081526c14d4d958dd5c9a5d1e519d5b99609a1b60208201529150612ef0565b6020808252810161100781612f9c565b601781526000602082017f57726f6e67206f70732073656375726974792066756e6400000000000000000081529150612c8f565b6020808252810161100781612ff6565b601d81526000602082017f4f5053536563757269747946756e6420686173206265656e207061696400000081529150612c8f565b602080825281016110078161303a565b6060810161308c82866129d9565b612f226020830185612a69565b604081016130a782856129d9565b611c446020830184612b64565b602481526000602082017f6f7073536563757269747946756e6420496e73756666696369656e742062616c815263616e636560e01b60208201529150612ef0565b60208082528101611007816130b4565b601681526000602082017557726f6e67207769746864726177206164647265737360501b81529150612c8f565b6020808252810161100781613105565b801515612975565b60008151905061100781613142565b60006020828403121561316e5761316e600080fd5b600061249f848461314a565b601781526000602082017f636c6f736520726169736520706c616e206661696c656400000000000000000081529150612c8f565b602080825281016110078161317a565b602681526000602082017f4f776e61626c653a206e6577206f776e657220697320746865207a65726f206181526564647265737360d01b60208201529150612ef0565b60208082528101611007816131be565b60006110076001600160401b038316613228565b90565b6001600160401b031690565b6129db81613211565b600061100761324f6132258460070b90565b60070b90565b6129db8161323d565b6040810161326c8285613234565b611c446020830184613255565b60208082527f4f776e61626c653a2063616c6c6572206973206e6f7420746865206f776e657291019081526000612c8f565b6020808252810161100781613279565b60006110078260601b90565b6000611007826132bb565b6129db6132de8261295b565b6132c7565b61020560f11b815260020160006132fa82846132d2565b50601401919050565b806129db565b60006133158284613303565b50602001919050565b602081016110078284613234565b634e487b7160e01b600052604160045260246000fd5b634e487b7160e01b600052603260045260246000fd5b6000600019820361336b5761336b612ca6565b5060010190565b600061337e8260070b90565b915061338a8360070b90565b925050818103677fffffffffffffff198112677fffffffffffffff8213171561100757611007612ca6565b600c81526000602082016b24b73b30b634b21021a127a960a11b81529150612c8f565b60208082528101611007816133b5565b60c081016133f68289612b7b565b61340360208301886129d9565b6134106040830187612b7b565b61341d6060830186612b7b565b818103608083015261342f8185612c16565b905061343e60a0830184613234565b979650505050505050565b6000613459826000815192915050565b613467818560208601612bf2565b9290920192915050565b6000611c448284613449565b60008261348c5761348c612e7e565b500690565b6000815190506110078161298b565b6001600160401b038116612975565b600081519050611007816134a0565b601f19601f83011681018181106001600160401b03821117156134e3576134e361332c565b6040525050565b60006134f96000604051905090565b9050612b5482826134be565b60006001600160401b0382111561351e5761351e61332c565b601f19601f83011660200192915050565b600061354261353d84613505565b6134ea565b90508281526020810184848401111561355d5761355d600080fd5b613568848285612bf2565b509392505050565b600082601f83011261358457613584600080fd5b815161249f84826020860161352f565b6000806000606084860312156135ac576135ac600080fd5b60006135b88686613491565b93505060206135c9868287016134af565b92505060408401516001600160401b038111156135e8576135e8600080fd5b6135f486828701613570565b9150509250925092565b602081016110078284612b7b565b80825b600185111561364b5780860481111561362a5761362a612ca6565b600185161561363857908102905b80026136448560011c90565b945061360f565b94509492505050565b60008261366357506001611c44565b8161367057506000611c44565b81600181146136865760028114613690576136bd565b6001915050611c44565b60ff8411156136a1576136a1612ca6565b8360020a9150848211156136b7576136b7612ca6565b50611c44565b5060208310610133831016604e8410600b84101617156136f0575081810a838111156136eb576136eb612ca6565b611c44565b6136fd848484600161360c565b9250905081840481111561371357613713612ca6565b0292915050565b6000611c44600019848461365456fea264697066735822122056b72f215facb61186c797a7eb9bb307379f2d7f0ba7045dd315ed1fe9bc54d564736f6c63430008110033a2646970667358221220c411b68a019d674a1e7718aba0c31a7706cdc64e3af79efa38453a85192624ba64736f6c63430008110033",
  "devdoc": {
    "kind": "dev",
    "methods": {},
    "version": 1
  },
  "userdoc": {
    "kind": "user",
    "methods": {},
    "version": 1
  },
  "storageLayout": {
    "storage": [
      {
        "astId": 7890,
        "contract": "contracts/LetsFilRaiseFactory.sol:LetsFilRaiseFactory",
        "label": "raiseID",
        "offset": 0,
        "slot": "0",
        "type": "t_uint256"
      },
      {
        "astId": 7895,
        "contract": "contracts/LetsFilRaiseFactory.sol:LetsFilRaiseFactory",
        "label": "inactivePlan",
        "offset": 0,
        "slot": "1",
        "type": "t_mapping(t_uint64,t_array(t_uint256)dyn_storage)"
      },
      {
        "astId": 7899,
        "contract": "contracts/LetsFilRaiseFactory.sol:LetsFilRaiseFactory",
        "label": "activePlan",
        "offset": 0,
        "slot": "2",
        "type": "t_mapping(t_uint64,t_uint256)"
      },
      {
        "astId": 7904,
        "contract": "contracts/LetsFilRaiseFactory.sol:LetsFilRaiseFactory",
        "label": "plans",
        "offset": 0,
        "slot": "3",
        "type": "t_mapping(t_uint256,t_struct(RaisePlan)9493_storage)"
      },
      {
        "astId": 7906,
        "contract": "contracts/LetsFilRaiseFactory.sol:LetsFilRaiseFactory",
        "label": "manager",
        "offset": 0,
        "slot": "4",
        "type": "t_address"
      }
    ],
    "types": {
      "t_address": {
        "encoding": "inplace",
        "label": "address",
        "numberOfBytes": "20"
      },
      "t_array(t_uint256)dyn_storage": {
        "base": "t_uint256",
        "encoding": "dynamic_array",
        "label": "uint256[]",
        "numberOfBytes": "32"
      },
      "t_mapping(t_uint256,t_struct(RaisePlan)9493_storage)": {
        "encoding": "mapping",
        "key": "t_uint256",
        "label": "mapping(uint256 => struct ILetsFilRaiseFactory.RaisePlan)",
        "numberOfBytes": "32",
        "value": "t_struct(RaisePlan)9493_storage"
      },
      "t_mapping(t_uint64,t_array(t_uint256)dyn_storage)": {
        "encoding": "mapping",
        "key": "t_uint64",
        "label": "mapping(uint64 => uint256[])",
        "numberOfBytes": "32",
        "value": "t_array(t_uint256)dyn_storage"
      },
      "t_mapping(t_uint64,t_uint256)": {
        "encoding": "mapping",
        "key": "t_uint64",
        "label": "mapping(uint64 => uint256)",
        "numberOfBytes": "32",
        "value": "t_uint256"
      },
      "t_struct(RaisePlan)9493_storage": {
        "encoding": "inplace",
        "label": "struct ILetsFilRaiseFactory.RaisePlan",
        "members": [
          {
            "astId": 9486,
            "contract": "contracts/LetsFilRaiseFactory.sol:LetsFilRaiseFactory",
            "label": "sponsor",
            "offset": 0,
            "slot": "0",
            "type": "t_address"
          },
          {
            "astId": 9488,
            "contract": "contracts/LetsFilRaiseFactory.sol:LetsFilRaiseFactory",
            "label": "minerId",
            "offset": 20,
            "slot": "0",
            "type": "t_uint64"
          },
          {
            "astId": 9490,
            "contract": "contracts/LetsFilRaiseFactory.sol:LetsFilRaiseFactory",
            "label": "raiseId",
            "offset": 0,
            "slot": "1",
            "type": "t_uint256"
          },
          {
            "astId": 9492,
            "contract": "contracts/LetsFilRaiseFactory.sol:LetsFilRaiseFactory",
            "label": "raiseAddress",
            "offset": 0,
            "slot": "2",
            "type": "t_address"
          }
        ],
        "numberOfBytes": "96"
      },
      "t_uint256": {
        "encoding": "inplace",
        "label": "uint256",
        "numberOfBytes": "32"
      },
      "t_uint64": {
        "encoding": "inplace",
        "label": "uint64",
        "numberOfBytes": "8"
      }
    }
  }
}